:020000040800F2
:100000006824002031020008C1240008952300085C
:10001000BD240008C10600083D27000800000000BC
:100020000000000000000000000000002127000880
:10003000C506000800000000C524000825270008A8
:100040004B0200084B0200084B0200084B0200085C
:100050004B0200084B0200084B0200084B0200084C
:100060004B0200084B0200084B0200084B0200083C
:100070004B0200084B0200084B0200084B0200082C
:100080004B0200084B0200084B0200084B0200081C
:100090004B0200084B0200084B0200084B0200080C
:1000A0004B0200084B0200084B0200084B020008FC
:1000B0004B0200084B0200084B0200084B020008EC
:1000C0004B0200084B0200084B0200084B020008DC
:1000D0004B0200084B0200084B0200084B020008CC
:1000E0004B0200084B0200084B0200084B020008BC
:1000F0004B0200084B0200084B0200084B020008AC
:100100000000000000000000000000004B0200089A
:100110004B0200084B0200084B0200084B0200088B
:100120004B0200084B0200084B0200084B0200087B
:100130004B0200084B020008000000000000000015
:100140004B0200084B0200084B02000800000000B0
:10015000000000000000000000000000000000009F
:1001600000000000000000004B0200084B020008E5
:100170004B0200080000000000000000000000002A
:10018000000000004B02000800F002F800F040F808
:100190000AA090E8000C82448344AAF10107DA45E2
:1001A00001D100F035F8AFF2090EBAE80F0013F0F4
:1001B000010F18BFFB1A43F0010318479C2D0000E4
:1001C000BC2D0000103A24BF78C878C1FAD8520775
:1001D00024BF30C830C144BF04680C6070470000C1
:1001E0000023002400250026103A28BF78C1FBD840
:1001F000520728BF30C148BF0B6070471FB502F0DF
:1002000081FE9DE8030000F029F91FBD10B510BD67
:1002100000F0D4F91146FFF7F1FF02F091FA00F077
:10022000F2F903B4FFF7F2FF03BC00F023FA000079
:100230000948804709480047FEE7FEE7FEE7FEE77A
:10024000FEE7FEE7FEE7FEE7FEE7FEE704480549B6
:10025000054A064B7047000029270008890100085D
:10026000380D002068240020681E0020681E002031
:1002700070B5A0FB0140B4F1805170F1000024BFC3
:10028000002070BD204600F007F805001CBF214685
:1002900000F04CF9284670BD70B5064600F0C2F873
:1002A000056806F10B0020F00704B4429CBF002053
:1002B00070BD2B466A68BAB11068A04210D304F131
:1002C000080188423CBF5068586007D35168101934
:1002D00041601168091B016058601460101D70BDF9
:1002E00013465268002AE7D12146284600F0A2F8BA
:1002F0000028DED170BD70B50446051F00F092F8ED
:100300000068002C14BF446870BD002C18BFAC42BC
:100310003CBF20466468F8D301680A18AA4218BF97
:10032000456003D12A6805461144016028684119D7
:10033000A1421CBF6C6070BD61686960216808449F
:10034000286070BD032A40F2308010F0030C00F0EA
:10035000158011F8013BBCF1020F624498BF11F8FF
:1003600001CB00F8013B38BF11F8013BA2F10402B8
:1003700098BF00F801CB38BF00F8013B11F0030330
:1003800000F0A280083AC0F0088051F8043B083A17
:1003900051F804CBA0E80810F5E7121D5CBF51F836
:1003A000043B40F8043BAFF30080D20724BF11F8B0
:1003B000013B11F801CB48BF11F8012B24BF00F815
:1003C000013B00F801CB48BF00F8012B70474FF00C
:1003D000000200B5134694469646203922BFA0E895
:1003E0000C50A0E80C50B1F12001BFF4F7AF0907A1
:1003F00028BFA0E80C5048BF0CC05DF804EB890092
:1004000028BF40F8042B08BF704748BF20F8022BD4
:1004100011F0804F18BF00F8012B704770477047EC
:100420007047000000487047180000207047704770
:100430007047704738B504460A4600206946AFF356
:100440000080002808BF38BD02460099204600F011
:1004500093F8012038BD012000F0A8B8F8B5AFF33B
:100460000080054600200C46102000BF0646A81953
:10047000A0420DD9324669460020AFF30080070044
:1004800008BF00F093F80098A04218BF0546C419B1
:10049000FFF7C8FF05600746F01D20F0070046196A
:1004A000284600F00AF8B44208BFF8BDA21B314646
:1004B0003868BDE8F84000F05FB800210160C0E98D
:1004C000011070471020704710B5203AC0F00B8023
:1004D000B1E81850A0E81850B1E81850A0E818503A
:1004E000203ABFF4F5AF5FEA027C24BFB1E81850B0
:1004F000A0E8185044BF18C918C0BDE810405FEA12
:10050000827C24BF51F8043B40F8043B08BF70478D
:10051000D20728BF31F8023B48BF11F8012B28BF92
:1005200020F8023B48BF00F8012B70474FF0000253
:100530000429C0F0128010F0030C3FF44AAFCCF154
:10054000040CBCF1020F18BF00F8012BA8BF20F863
:10055000022BA1EB0C01FFF73CBF5FEAC17C24BF7B
:1005600000F8012B00F8012B48BF00F8012B704761
:100570000048704710000020034640688C46002861
:1005800018BF88423CBF03464068F8D31868184437
:10059000884207D00CF1030020F00700001D411A2B
:1005A000521A0146081D0A60FFF7A5BE10B500F0FB
:1005B00039F8BDE8104000F02FB870477546FFF7D6
:1005C000D7FFAE4605006946534620F00700854632
:1005D00018B020B5FFF73AFEBDE820404FF0000606
:1005E0004FF000074FF000084FF0000BAC46ACE8AE
:1005F000C009ACE8C009ACE8C009ACE8C00921F00A
:1006000007018D46704710B50446AFF300802046C1
:10061000BDE81040FFF705BE002801D000F02AB861
:100620007047000010B5012805D0002103A000F09C
:1006300027F8012010BD09A1F8E7000053494752EF
:10064000544D454D3A204F7574206F6620686561A2
:1006500070206D656D6F7279000000003A2048656A
:100660006170206D656D6F727920636F7272757045
:100670007465640001491820ABBEFEE72600020045
:1006800070B505460C460A2000E06D1C00F011F81C
:1006900035B128780028F8D102E0641C00F009F890
:1006A00014B120780028F8D1BDE870400A20AFF3DB
:1006B000008008B569468DF800000320ABBE08BD78
:1006C000FEE700007047000072B600BFFEE70000C2
:1006D0002DE9F04F81B02DED048B84B0044690F8E5
:1006E0002900012840F0898094F82B00012840F06F
:1006F000848094F82A00012840F07F80E08A94EDFD
:10070000039A00EE100AB8EE408A9FED3F0B6FF09F
:100710000D0751EC100B9FED3E0BCDE9021050EC94
:1007200010BB9FED3D0B4FF4B06855EC106B019082
:1007300004EB0709B9F86E0004EB080AC0BA00EE32
:10074000100AB8EEC00A80EE080A0AED480AB9F8A5
:100750007000C0BA00EE100AB8EEC00A80EE080AB7
:100760008AED010AB9F87200C0BA00EE100AB8EEBC
:10077000C00A80EE080A8AED4A0AB9F87400C0BAC5
:1007800002F066FADDE9023202F008F9019B5A46EE
:1007900002F05CF832462B4602F058F802F024F8DA
:1007A000CAF84C02B9F876000E37C0BA00EE100A4B
:1007B000B8EEC00A80EE090AB7F57C7F08F104089C
:1007C0008AEDDC0AB9F87800C0BA00EE100AB8EE7B
:1007D000C00A80EE090A0AF2944080ED000AB9F8D6
:1007E0007A00C0BA00EE100AB8EEC00A80EE090A1C
:1007F0000AF5B76080ED000A9AD104B0BDEC048B15
:1008000001B0BDE8F08F00BF17D9CEF753D57440C3
:10081000000000000000394000000000000010C08F
:100820002DE9F04381B0551C884604460120294635
:100830009146FFF71DFD06462846FFF72DFD0746AA
:1008400044F0800040F60004C4F6000430702046F6
:100850004FF40051002200F033FF40F6CC404FF03F
:10086000FF3CABB2C2F2000031463A46CDF800C0C0
:1008700001F008FC054620464FF40051012200F02B
:100880001FFF25B9791C40464A46FFF75BFD3046FD
:10089000FFF731FD3846FFF72EFD284601B0BDE8D1
:1008A000F083000070B50C464FF4FA71054600F075
:1008B000D7FB1B2004210222022300F0A7FC42F2F6
:1008C0000200688143F23330C4F20320E8601C2048
:1008D000042102220123012600F098FC4FF400506D
:1008E000E882284621466E7500F006F81420BDE81F
:1008F000704000F0E3BD0000B0B504464920002977
:10090000E0854BD0012918BFB0BD01256A20022126
:100910000122012384F8275000F078FC6A20062188
:100920000122012300F072FC1D2007210222012375
:1009300084F8285000F06AFC6A2002210122012379
:1009400000F064FC1A2006210122012384F82C50B7
:1009500000F05CFC232006210322072384F82D509D
:1009600000F054FC232003210122012384F82A50A3
:1009700000F04CFC232007210122012384F82B5096
:1009800000F044FC382004210122012384F829507E
:1009900000F03CFC84F82150B0BD00BF0025382099
:1009A00004210122002384F8275000F02FFC23208B
:1009B00006210322002384F8215000F027FC232085
:1009C00003210122002384F82A5000F01FFC232079
:1009D00007210122002384F82B5000F017FC6A2025
:1009E00006210122002384F8295000F00FFC6A2020
:1009F00002210122012384F82850BDE8B04000F014
:100A000005BC00002DE9F04383B040F60005044624
:100A1000C4F60005BA20ADF80A0028464FF400518C
:100A20000022002700F04CFE40F6CC404FF0FF368D
:100A3000C2F200000DF10A0102AA0223009601F0A1
:100A400021FB064628464FF40051012200F038FEF3
:100A500026B184F8267003B0BDE8F0839DF8090044
:100A600010F0010084F8260002D103B0BDE8F08345
:100A7000BA20ADF80A0028464FF4005100220027A2
:100A800000F01EFE40F6CC404FF0FF36C2F20000F0
:100A90000DF10A0102AA0223009601F0F3FA0646BC
:100AA00028464FF40051012200F00AFE26B184F8D6
:100AB000307003B0BDE8F0839DF80900C0F300106A
:100AC000002884F83000D0D0F220ADF80A00284683
:100AD0004FF40051002200F0F3FD40F6CC46C2F284
:100AE00000064FF0FF390DF10A0102AA3046022339
:100AF000CDF8009001F0C6FA28464FF400510122CB
:100B00004FF0010800F0DCFDF3209DF80970ADF80E
:100B10000A0028464FF40051002200F0D1FD0DF1EB
:100B20000A0102AA30460223CDF8009001F0AAFA89
:100B300028464FF40051012200F0C2FD9DF8090043
:100B400004F1600140EA0720608674204FF480625F
:100B5000FFF766FE2046FFF7BBFD6A200221012257
:100B6000012300F053FB84F8028003B0BDE8F0835A
:100B7000F0B583B040F600050446BA20C4F600057F
:100B8000ADF80A0028464FF400510022002700F07B
:100B900097FD40F6CC404FF0FF36C2F200000DF159
:100BA0000A0102AA0223009601F06CFA06462846C2
:100BB0004FF40051012200F083FD1EB184F826702D
:100BC00003B0F0BD9DF8090010F0010084F8260084
:100BD0000AD00020A070204600F01EF8204600F049
:100BE00087F8204600F064F903B0F0BD012909D070
:100BF000002918BF704790F82710002908BFFFF799
:100C0000B7BF05E090F82710012908BFFFF7FABE2B
:100C100070470000000000002DE9F04184B040F66C
:100C200000058046C120C4F60005ADF80A0028463C
:100C30004FF40051002200F043FD40F6CC46C2F2D2
:100C400000064FF0FF370DF10A0102AA30460223D9
:100C5000009701F017FA28464FF40051012200F0E6
:100C60002FFDC2209DF80940ADF80E0028464FF434
:100C70000051002200F024FD0DF10E0103AA3046C0
:100C80000223009701F0FEF928464FF4005101229B
:100C900000F016FD9DF80D0040EA042108B2A8F806
:100CA000401001F0D5FF9FED0C0B53EC102B01F021
:100CB00075FE9FED0B0B53EC102B01F0C7FD9FED64
:100CC0000A0B53EC102B01F0C1FD01F08DFDC8F8AB
:100CD000500004B0BDE8F08117D9CEF753D5744069
:100CE000000000000000394000000000000010C0BB
:100CF0002DE9F04182B040F600050446BB20C4F661
:100D00000005ADF8060028464FF40051002200F01F
:100D1000D7FC40F6CC46C2F200064FF0FF380DF18A
:100D2000060101AA30460223CDF8008001F0AAF99D
:100D300028464FF40051012200F0C2FCBC209DF86F
:100D40000570ADF8060028464FF40051002200F06F
:100D5000B7FC0DF1060101AA30460223CDF8008050
:100D600001F090F928464FF40051012200F0A8FC50
:100D70009DF80500E18A40EA072000EE101A01B252
:100D800001EE101AB8EE400AB8EEC11A81EE000A60
:100D9000A086BD20ADF8060028464FF40051002281
:100DA00084ED110A00F08CFC0DF1060101AA304619
:100DB0000223CDF8008001F065F928464FF4005178
:100DC000012200F07DFCBE209DF80570ADF8060004
:100DD00028464FF40051002200F072FC0DF106018C
:100DE00001AA30460223CDF8008001F04BF92846D5
:100DF0004FF40051012200F063FC9DF80500E18AE8
:100E000040EA072000EE101A01B201EE101AB8EE07
:100E1000400AB8EEC11A81EE000AE086BF20ADF8A4
:100E2000060028464FF40051002284ED120A00F01B
:100E300047FC0DF1060101AA30460223CDF80080DF
:100E400001F020F928464FF40051012200F038FC4F
:100E5000C0209DF80570ADF8060028464FF40051FB
:100E6000002200F02DFC0DF1060101AA30460223FC
:100E7000CDF8008001F006F928464FF40051012218
:100E800000F01EFC9DF80500E18A40EA072000EE14
:100E9000101A01B201EE101AB8EE400AB8EEC11AEB
:100EA00081EE000A208784ED130A02B0BDE8F081CC
:100EB0002DE9F04182B040F600050446C320C4F697
:100EC0000005ADF8060028464FF40051002200F05E
:100ED000F7FB40F6CC46C2F200064FF0FF380DF1AA
:100EE000060101AA30460223CDF8008001F0CAF8BD
:100EF00028464FF40051012200F0E2FBC4209DF887
:100F00000570ADF8060028464FF40051002200F0AD
:100F1000D7FB0DF1060101AA30460223CDF800806F
:100F200001F0B0F828464FF40051012200F0C8FB50
:100F30009DF8050094ED031A40EA072001B200EE87
:100F4000101AB8EEC00A80EE010A6087C520ADF81D
:100F5000060028464FF40051002284ED150A00F0E7
:100F6000AFFB0DF1060101AA30460223CDF8008047
:100F700001F088F828464FF40051012200F0A0FB50
:100F8000C6209DF80570ADF8060028464FF40051C4
:100F9000002200F095FB0DF1060101AA3046022364
:100FA000CDF8008001F06EF828464FF40051012280
:100FB00000F086FB9DF8050094ED031A40EA072037
:100FC00001B200EE101AB8EEC00A80EE010AA08746
:100FD000C720ADF8060028464FF40051002284EDEA
:100FE000160A00F06DFB0DF1060101AA304602233E
:100FF000CDF8008001F046F828464FF40051012258
:1010000000F05EFBC8209DF80570ADF8060028468C
:101010004FF40051002200F053FB0DF1060101AA2C
:1010200030460223CDF8008001F02CF828464FF41A
:101030000051012200F044FB9DF8050094ED031AD5
:1010400040EA072001B200EE101AB8EEC00A80EEA6
:10105000010AE08784ED170A02B0BDE8F0810000C4
:101060002DE9F04184B040F600040546C4F60004C2
:101070009B208846ADF8060020464FF40051002220
:1010800000F01EFB40F6CC404FF0FF37C2F20000EC
:101090000DF1060101AA0223009700F0F3FF0746B5
:1010A00020464FF40051012200F00AFB17B1002640
:1010B00004E000BF9DF8050000F003069A20ADF89B
:1010C0000A0020464FF40051002200F0F9FA40F6E1
:1010D000CC404FF0FF37C2F200000DF10A0102AA26
:1010E0000223009700F0CEFF074620464FF4005140
:1010F000012200F0E5FA002F08BF002E02D004B054
:10110000BDE8F0819DF8090010F00700F7D007282E
:10111000F5D04FF47A70A883B0FBF8F019210138AC
:1011200085F820008DF80E108DF80F0020464FF442
:1011300000510022A5F81E8000F0C2FA40F6CC450E
:10114000C2F200054FF0FF370DF10E0103AA284649
:101150000223009700F096FF284600F0E7FE0128E2
:10116000FAD120464FF40051012200F0A9FA04B050
:10117000BDE8F0812DE9F04F83B0044640F600054C
:101180006A20002101220123C4F6000500F03EF888
:1011900040F6CC484FF0EB0A4FF0FF3BC2F200089C
:1011A0000DF10A0902AE00BF6B20072101220123C5
:1011B00000F02CF8642000F081F928464FF400512B
:1011C0000022ADF80AA000F07BFA404649463246BC
:1011D0000223CDF800B000F055FF074628464FF433
:1011E0000051012200F06CFA57B99DF8090041B294
:1011F000C0090029E070D7D403B0BDE8F08F00BF6C
:101200000020E07003B0BDE8F08F00002DE9F0474A
:1012100084B007294FF001062DD81746082A2AD88E
:10122000054640F6000840F08000C4F600088DF83E
:101230000E0000200C468DF80F0040464FF4005180
:101240000022994600F03CFA40F6CC404FF0FF3ABD
:10125000C2F200000DF10E0103AA0223CDF800A096
:1012600000F010FF064640464FF40051012200F006
:1012700027FA2EB10126304604B0BDE8F08700BF42
:101280000AFA07F1E21B9DF80D00C94301329140B3
:1012900009FA02F20A40884310448DF80B004046D8
:1012A0004FF4005100228DF80A5000F009FA40F680
:1012B000CC44C2F200040DF10A0102AA2046022326
:1012C000CDF800A000F0DEFE064600BF204600F08C
:1012D0002DFE0128FAD140464FF40051012200F0C2
:1012E000EFF9304604B0BDE8F08700002DE9F04189
:1012F00082B00446032000F0E1F840F60005F52036
:10130000C4F60005ADF8060028464FF4005100224F
:10131000002700F0D5F94FF0FF30009040F6CC40A8
:10132000C2F200000DF1060101AA02234FF00208EB
:1013300000F0A8FE064628464FF400510122012580
:1013400000F0BEF916B99DF8050020712046FFF7A0
:1013500011FF6A20072101220023FFF757FF6C20AD
:10136000062101220023FFF751FF6B2003210122F8
:101370000023E771FFF74AFF6C20052103220023B9
:101380002572FFF743FF6C200221032200232775FB
:10139000FFF73CFF6B200621012200236772FFF755
:1013A00035FF1E200721012200236771FFF72EFF62
:1013B0006B200521012200232774FFF727FF01205E
:1013C000277600F07BF86B20022103220123FFF730
:1013D0001DFF1B20012102220023A571FFF716FF2C
:1013E0001D200321012200236774FFF70FFF1A203D
:1013F0000221032202236776FFF708FF1D20022146
:101400000322022384F81280FFF700FF4920E085C1
:10141000382004210122002384F81A8084F82770E0
:10142000FFF7F4FE232006210322002384F8217015
:10143000FFF7ECFE232003210122002384F82A7009
:10144000FFF7E4FE232007210122002384F82B70FC
:10145000FFF7DCFE6A2006210122002384F82970B0
:10146000FFF7D4FE6A2002210122012384F82870AC
:10147000FFF7CCFE3720072101220123FFF7C6FE2C
:101480003720062101220123FFF7C0FE3720052166
:1014900001220123FFF7BAFE40F20110A4F8230055
:1014A000382000210122012384F82550FFF7AEFEE9
:1014B00084F8225002B0BDE8F0810000B0B50446C7
:1014C00000F004F9054640F20000C2F20000007886
:1014D000611C18BF044400BF00F0F8F8401BA04294
:1014E000FAD3B0BD2DE9F04F84B08E4641F2000230
:1014F000C4F60002DEF8004005219042019008BFCA
:101500000421002C009100F0D7800198002500F103
:1015100038424FEAB2230098012700264FF0000816
:10152000042B38BF18460090CDF808E00EE000BF4D
:10153000DEF8004008F1010834FA07F106F102066E
:1015400007F1010705F1040500F0B680A7F1010AD3
:10155000012000FA0AF314EA0309E9D0DEF804C016
:101560000CF0030BABF10104012C17D80198744661
:1015700081680322E468B2409143B4402143816012
:1015800041684FEA480E9943CCF3001303FA0AF37B
:101590000446D043194361600CE000BF0321B14011
:1015A000019CC843BBF1030FB64603D1B6464FF0CA
:1015B000030B23E0E168029A01409368BBF1020F3C
:1015C00003FA0EF341EA0301E16017D16FF0030162
:1015D00001EA5A01214405F01C040F23D1F820C070
:1015E00003FA04FB13692CEA0B0CA34043EA0C0337
:1015F000019C0B62D2F804C00CF0030B21680BFABB
:101600000EF2014011432160DDF808E01CF4403F78
:101610008ED041F21800C4F20200016840F2004C82
:1016200041F0010101600168C4F2010C01F0010107
:10163000039103992AF003014FF6084A6144CFF65B
:10164000FF7A05F00C030F2051F80A2000FA03F48A
:101650000098A24300FA03F31A4341F80A20DCF889
:101660000010DEF8042041EA0903D40358BF21EA40
:101670000903CCF80030DCF80410940341EA0903B4
:1016800058BF21EA0903CCF80430DCF8081040F216
:101690000C4041EA0903D40258BF21EA0903CCF8FF
:1016A0000830C4F201000168920241EA090358BF00
:1016B00021EA090303603BE704B0BDE8F08F0000B6
:1016C0001823002A08BF2823C150704740F6305025
:1016D000C2F200000068704740F2000040F630514E
:1016E000C2F20000C2F2000100780A6810440860EB
:1016F0007047000080B542F20000C4F202000168A9
:1017000041F010010160032000F072F80F2000F09A
:1017100005F800F027F8002080BD000070B540F209
:101720000006C2F2000640F208013278C2F200015F
:101730004FF47A730968B3FBF2F20446B1FBF2F19D
:10174000084600F011FE0F2C4FF0010508D838B9FB
:101750004FF0FF3021460022002500F01DF8746094
:10176000284670BD82B041F21800C4F20200016840
:1017700041F001010160016801F00101019101994D
:10178000416841F080514160406800F08050009015
:10179000009802B07047000010B54EF60C5CCEF217
:1017A000000CDCF80030C3F3022E8EF00704042C8A
:1017B00028BF0424BEF103034FF0FF3E0EFA04F4E9
:1017C00038BF0023A14399400EFA03F39A43114313
:1017D00000F00F02043A624409010C3200F1604348
:1017E000B0F1FF3FC8BF03F56442117010BD0000A7
:1017F0004EF60C51CEF200010A684FF6FF031A4074
:1018000060F30A2242F0806040F0FD70086070478B
:101810002DE9F04182B00446807841F23006C007DD
:10182000C4F2020656D056F8140C10F080580BD1B2
:1018300056F8140C40F0805046F8140C56F8140C6E
:1018400000F080500190019847F20007C4F20007B1
:101850003868C00512D4386840F480703860FFF7EB
:1018600035FF05463868C00508D4FFF72FFF401B39
:101870006428F7D9032002B0BDE8F08156F8100CB7
:1018800010F4407015D0616801F44071884210D0A6
:1018900056F8100C40F24042C4F24222012320F4D8
:1018A000407113600023C007136046F8101C40F01D
:1018B000A38056F8100C616820F440700843B8F11A
:1018C000000F46F8100C05D156F8140C20F080508B
:1018D00046F8140C2068C1071CD1810722D44107A7
:1018E00028D481062ED4810334D441063CD4010788
:1018F00042D4C10648D481054ED4010656D4C10550
:101900005ED4C10466D480046CD4002002B0BDE86B
:10191000F08100BF3168A26821F0030111433160FA
:101920008107DCD53168E26821F440311143316030
:101930004107D6D53168226921F440211143316035
:101940008106D0D53168E26921F010011143316080
:101950008103CAD556F82C1CA26B21F480011143D7
:1019600046F82C1C4106C2D53168226A21F02001BC
:10197000114331600107BCD53168626921F440111F
:1019800011433160C106B6D53168A26921F4400126
:10199000114331608105B0D556F82C1CE26A21F460
:1019A0000001114346F82C1C0106A8D556F8041C6A
:1019B000626A21F4F871114346F8041CC105A0D5F0
:1019C00056F8041CA26A21F47851114346F8041C0D
:1019D000C10498D53168226B21F4807111433160C4
:1019E000800492D53068616B20F400700843306049
:1019F000002002B0BDE8F081FFF768FE054641F225
:101A0000883700BF56F8100C80073FF552AFFFF73C
:101A10005DFE401BB8424FF00300F3D9E9E7000038
:101A20002DE9F04381B0002877D042F20008C4F2DB
:101A300002080446D8F800000D4600F0070088426E
:101A40000CD2D8F8000020F007002843C8F80000A6
:101A5000D8F8000000F00700A8425ED1206841F2EB
:101A600004098107C4F2020907D5D9F80010A26859
:101A700021F0F0011143C9F80010C00744D1D8F893
:101A8000000000F00700A8420CD9D8F8000020F0B0
:101A900007002843C8F80000D8F8000000F007004D
:101AA000A8423AD12068410707D5D9F80010E2686A
:101AB00021F4E0611143C9F80010000708D5D9F8F6
:101AC0000000216920F4605040EAC100C9F800001C
:101AD000D9F8002002F00C00082841F20020C0F2E2
:101AE0007A0051D142F63873C2F38341C0F6000345
:101AF000595CD9F82830D2033CD440F60010C0F22B
:101B00003D00484340E000BF606802280AD0012839
:101B10002AD159F8041C890308D4012001B0BDE87A
:101B2000F08300BF59F8041C8901F6D5D9F80010DC
:101B300021F003010843C9F80000FFF7C7FD06467E
:101B400041F28837D9F80000616800F00C00B0EB72
:101B5000810F94D0FFF7BAFD801BB842F2D9032061
:101B600001B0BDE8F08300BF59F8041C8907D4D543
:101B7000DCE700BF03F00F0242F64873C0F6000333
:101B80009A5CB0FBF2F04843D9F8001042F6287294
:101B9000C1F30311C0F60002515C40F2080220FAC2
:101BA00001F140F20400C2F200000068C2F200023B
:101BB0001160FFF7B3FD002001B0BDE8F083000025
:101BC0002DE9F04182B0002850D00446007841F25F
:101BD0000006C007C4F202060AD0706800F00C00CC
:101BE000042840F085803068800301D56068E8B340
:101BF000207880071AD5706810F00C0F09D0706833
:101C000000F00C00082840F0A5807068C00300F1C7
:101C1000A1803068800702D52069012826D130686C
:101C2000616920F0F80040EAC100306020780007C8
:101C300020D42078400735D4E56995B1706800F06C
:101C40000C00082840F0C280012D0FD07068216A76
:101C500000F480328A4209D1616A00F4701088422F
:101C600004D1002002B0BDE8F08100BF012002B025
:101C7000BDE8F081A069002800F094800020C4F243
:101C800042200121C0F88014FFF720FD054600BF67
:101C9000706A8007CDD4FFF719FD401B0228F7D9E1
:101CA0001CE100BFF06910F0805808D1F06940F0E5
:101CB0008050F061F06900F080500190019847F287
:101CC0000007C4F200073868C00559D4386840F4EA
:101CD00080703860FFF7FAFC054600BF3868C00521
:101CE0004ED4FFF7F3FC401B6428F7D9F6E000BFA1
:101CF000706800F00C00082803D17068C0033FF53D
:101D000072AF6068B0F5A02F00F09480B0F5803F0E
:101D100000F09480002840F09580306820F48030F6
:101D20003060306820F480203060F06AA16820F0D4
:101D30000F000843F062FFF7C9FC054630688003D6
:101D40007FF556AFFFF7C2FC401B64284FF003003D
:101D5000F4D987E72069002840F20000C4F242204D
:101D600056D001210160FFF7B1FC054630688007BD
:101D70003FF555AFFFF7AAFC401B0228F6D9ADE0AE
:101D8000E068002800F07A80052800F091800128A2
:101D900000F09280306A20F001003062306A20F05A
:101DA00004008CE00020C4F242200021C0F880141E
:101DB000FFF78CFC054600BF706A80077FF539AFDE
:101DC000FFF784FC401B0228F6D987E00027C4F205
:101DD000422700203866FFF779FC022D05460BD11B
:101DE0003068800140F18880FFF770FC401B0228BA
:101DF0004FF00300F4D935E7306880017FF531AF4B
:101E0000FFF764FC401B02284FF00300F4D929E7D8
:101E100000210160FFF75AFC054600BF30688007CB
:101E20007FF504AFFFF752FC401B02284FF0030080
:101E3000F4D917E7306840F480203060306840F40F
:101E4000803006E0306820F480303060306820F464
:101E500080203060F06AA16820F00F000843F06233
:101E6000FFF734FC054600BF306880033FF5C0AE85
:101E7000FFF72CFC401B6428F6D92FE0306A20F0D5
:101E800001003062306A20F004003062FFF71EFC6F
:101E9000054641F2883700BF306A800722D5FFF738
:101EA00015FC401BB8424FF00300F5D9DAE600BF3D
:101EB000306A40F004003062306A40F00100306265
:101EC000FFF704FC054641F2883700BF306A8007FF
:101ED00008D4FFF7FBFB401BB842F7D9032002B040
:101EE000BDE8F081B8F1000F7FF4A6AEF06920F0F4
:101EF0008050F061A0E600BF7068D4E9082120F4AA
:101F0000741008431043706001203866FFF7DEFB51
:101F1000044600BF306880013FF5A3AEFFF7D6FB53
:101F2000001B02284FF00300F4D99BE690F85D00F7
:101F300070470000002804BF01207047B0B5044678
:101F4000406A28B10020206104F1140006E000BFBF
:101F50006068B0F5827F03D004F11C0000210160AD
:101F60000025A56294F85D0020B9204684F85C50F5
:101F700000F052F8022084F85D002068D4F80CE0EC
:101F80000268BEF5E06F22F0400202604EF400628B
:101F900098BF0125B2F5706F1CBF0023A3624FEA02
:101FA000053CD4E90135D4E9042103F4827305F436
:101FB00004452B4402F002021A44A36901F0010116
:101FC000E569114403F40072114405F03802256AF2
:101FD000114405F08002A56A114405F40052114332
:101FE00001600421626A0EF4706501EA1341636BBB
:101FF00045EA0C0502F01002294303F008031143DF
:1020000019434160C16921F40061C16100200121CF
:10201000206684F85D10B0BD80B586B0006843F2DC
:102020000001C4F20101884202D006B080BD00BFA9
:1020300041F21400C4F20200416841F48051416051
:10204000416801F4805101910199016841F48021B6
:102050000160006801A900F48020019001983820F7
:10206000019002200290002003900320049005209C
:10207000059040F20040C4F60000FFF733FA06B0C6
:1020800080BD00002DE9F04381B0044690F85C006B
:10209000012803D1022001B0BDE8F08301201E46D3
:1020A00015460F4684F85C00FFF710FB94F85D10AE
:1020B0008146012940F0B080002F4FF0010018BF89
:1020C000002D00F04681002E00F0438194F85D0061
:1020D00004281CBF052084F85D00002020662564CC
:1020E000A4F84660A4F84460A763E687C4E9130037
:1020F0002068A687E1684268B1F5E06F22F480525B
:10210000134698BF03F58053012E88BF13464360E2
:102110000268520603D4026842F04002026062681C
:10212000731EB2FA82F2B3FA83F3DDF8208052090B
:102130005B09B1F5E06F43EA02017DD931B137F8AF
:10214000021BC160A763E08F0138E087012518F109
:10215000010035D102E000BFFFF7B8FAE08F20B9E7
:10216000B4F84600002800F0D7802068816889070D
:102170000CD5E18F51B1012D08D1A16B002531F8AB
:10218000022BC260A163E18F0139E1878168C90731
:10219000E2D0B4F846100029DED0C068216C0125D9
:1021A00021F8020B2164B4F846000138A4F8460077
:1021B000D2E700BFFFF78AFAA0EB0900404545D2FD
:1021C000E08F20B9B4F84600002800F0A580206810
:1021D000816889070CD5E18F51B1012D08D1A16B20
:1021E000002531F8022BC260A163E18F0139E1873C
:1021F0008168C907DED0B4F846100029DAD0C0687B
:10220000216C012521F8020B2164B4F84600013845
:10221000A4F84600CEE700BF6068B0F5827F09D120
:10222000A06800284FF0020008BF042940F0918008
:1022300042E700BF02208CE099B1E18F02294FF6FE
:10224000FE7105D337F8022BC26006E0032080E060
:102250003A7801310273A06B471CA763E08F0844F2
:10226000E087012608F10105E08F18B9B4F84600AF
:10227000002851D02068816889071AD5E18FC1B143
:10228000012E16D1E18F022908D3A16B31F8022B60
:10229000C260A163E18F023909E000BFA16B097838
:1022A0000173A16B20680131A163E18F0139002620
:1022B000E1878168C90725D0B4F8461011B3B4F896
:1022C0004610022912D3C168226C22F8021B226434
:1022D000B4F846100239A4F84610B4F846100129A3
:1022E0000FD8416841F4805141600AE0007B216CC5
:1022F0000870206C01302064B4F846000138A4F85E
:1023000046000126FFF7E2F9002DADD0A0EB090051
:102310004045A9D303201CE020464FF4C05142465B
:102320004B4600F0D1F868B9204641464A4600F0D5
:102330008FF938B920464FF4C06142464B4600F051
:10234000C3F878B1206E40F020002066202020667F
:102350000120012184F85D10002184F85C1001B097
:10236000BDE8F0830020F4E7411E0020B0EB116FC0
:102370001CBF012070474EF21002CEF200025160E5
:102380004EF62351CEF20001F0230B70072190602E
:1023900011607047FEE700002DE9F04387B0002789
:1023A00041F214000697C4F20200016840F20048AE
:1023B00041F4002101600168C4F6000801F4002125
:1023C00001910199016808F5806641F4800101607E
:1023D0000168012201F480010191019901684FF423
:1023E000005541F4003101600168012401F400311D
:1023F00001910199016841F48021016000684FF466
:10240000005100F48020019001983046FFF758F900
:102410004046402100224FF04009FFF751F9CDE935
:10242000025402AD30462946CDE90447FFF75AF879
:102430004FF48470CDE902074FF09040294604978D
:10244000FFF750F80420CDE90207404629460497DB
:10245000FFF748F840462946CDE90294CDE90474D7
:10246000FFF740F807B0BDE8F083000010B540F674
:10247000CC4043F20001C2F20000C4F201014FF46B
:10248000827200234FF4E06C4FF4007E102480E849
:102490000E1007210822C0E90433C0E906E4C0E9B0
:1024A0000833C0E90A31C0E90C32FFF743FD0028C8
:1024B00008BF10BDBDE81040FEF706B9FEE70000FA
:1024C000FEE70000704700002DE9F04782B00026CB
:1024D0001F4690460D4681468DF80360FFF7F6F8DB
:1024E000381A00EB0807FFF7F1F840F20801C2F2D2
:1024F0000001096823225143090DD9F800407943AE
:102500000191A168294271D0824618F1010037D0AB
:10251000B5F5C06F1CD100BF207B8DF803009DF87E
:102520000300FFF7D3F8A0EB0A00B84262D201988B
:1025300001990028A1F101010191D9F800108968E1
:1025400008BF074611F4C06FE6D100264EE000BF79
:10255000FFF7BCF8A0EB0A00B8424BD201980199F2
:102560000028A1F101010191D9F80010896808BF84
:1025700007462942ECD10026304602B0BDE8F0877C
:102580000026B5F5C06F25D1207B8DF803009DF89E
:102590000300A06810F4C06FEDD0207B8DF803001D
:1025A0009DF80300A06810F4C06FE4D0207B8DF884
:1025B00003009DF80300A06810F4C06FDBD0207BFF
:1025C0008DF803009DF80300A06810F4C06FDBD104
:1025D0000CE000BFA0682842CDD0A0682842CAD035
:1025E000A0682842C7D0A0682842F3D1304602B084
:1025F000BDE8F087D9E900014268B1F5827F22F099
:10260000E00242600BD1D9F80810B1F5004F02D0BA
:10261000B1F5806F03D1016821F040010160D9F864
:102620002810B1F5005F07D1016821F40051016065
:10263000016841F400510160012089F85D0000202B
:1026400089F85C000326304602B0BDE8F087000040
:10265000F0B581B015460E460446FFF737F8281A44
:102660008719FFF733F840F20801C2F20001096848
:10267000C1F3CB317943009121688A68120622D5D3
:102680000546701C15D000BFFFF720F8401BB8426C
:102690001CD2009800990028A1F101010091216845
:1026A000896808BF07460806EED40CE08868000673
:1026B00009D58868000606D58868000644BF886882
:1026C0005FEA0060F2D4002001B0F0BDD4E900015F
:1026D0004268B1F5827F22F0E00242600AD1A1682F
:1026E000B1F5004F02D0B1F5806F03D1016821F040
:1026F00040010160A16AB1F5005F07D1016821F4D2
:1027000000510160016841F400510160012084F82A
:102710005D00002084F85C00032001B0F0BD0000E3
:1027200070470000FEF7D8BF4EF68850CEF200008A
:10273000016841F47001016070470000FEE700008D
:102740009EB0FEF7D7FF6846002404303821CDE95B
:102750001944CDE91744FDF73AFE01201490189072
:102760004FF4C0104FF4803102251D9014A8CDE91C
:102770001514CDE91B51FFF723FA18B172B600BF4B
:10278000FEE700BF0F20CDE90F054FF48060CDE9D3
:1027900012040FA802211194FFF742F910B172B68A
:1027A000FEE700BF20200090102007906846FFF74A
:1027B0002FF818B172B600BFFEE700BFFFF7ECFDBF
:1027C000FFF754FE40F27004C2F200042046FEF708
:1027D0008DFD20460121FEF765F800BF204601214E
:1027E000FEF704FAFAE7000021F0004201F000438E
:1027F000A2F16052B2F5801F28BFD2F17F6C0BD9D5
:102800005FEA001C43EAC20242EB507018BF7047F7
:1028100028BF20F001007047B2F5801FBCBF1846EA
:1028200070474FEA410C1CF5001F02D2084600F029
:1028300076BB70B500F023FA00000089FFF7F6BF01
:102840004FF00040A0F580007047000010B591EAFD
:10285000030F48BF83F0004300F16E82841A71EBCE
:10286000030C05D2121943EB0C03001B61EB0C01A6
:102870004FEA1154A4EB135CDFF81CE11EEA430F8E
:1028800018BF9EEA445F00F0748021EA045123EAF5
:102890000E0343F48013DCF1200E32D322FA0CFE37
:1028A00010EB0E0023FA0CFE41EB0E01CCF1200ED2
:1028B00003FA0EFE10EB0E00CCF1200E51F10001D8
:1028C000B1F5801F32D201EB045112FA0EF2BDE8CD
:1028D000104058BF7047401C38BF5FEA420218BF23
:1028E0007047002814BF20F0010041F100014FEAB9
:1028F000410313F5001F38BF7047A1F1C04100F03C
:102900000CBA012A43EB0302ACF1200CDCF11F0EE0
:1029100032BF4FF0000E23FA0CF310EB030041EB33
:102920000451B4EB115FD0D0A1EB045101F580113B
:10293000490801EB04515FEA30000ED350F100006A
:1029400038BF12FA0EFE08D1BDE81040C9E7401C9E
:1029500038BF5FEA4202CAD1C3E7BDE810404FEA80
:10296000410313F5001F38BF7047A1F1C04100F0CB
:10297000D4B99EEA445F08D011EA5E0FBDE810406A
:1029800004BF01F0004100207047BDE8104070B561
:1029900000F075F964FBBE3E0000E0FF2DE9C04188
:1029A00030B4DFF8A4C23CEA111418BF3CEA131497
:1029B00000F0ED801CEA111481EA030544EAD574A5
:1029C00018BF1CEA131500F0C880A4EB050404F13D
:1029D0007F7404F500344FF0004545EAC12145EA13
:1029E000C32341EA505143EA52534FEAC0204FEA11
:1029F000C222994208BF904200F09D804FEA1365C1
:102A00000FF24416765D4FEA134506FB05F7C7F152
:102A1000807706FB07F74FEAD737A7FB03687642B4
:102A2000A7FB06CEC8F5803838BFA8F1010807FB20
:102A300008E6A6FB028C4FF0000EE6FB03CEDCF1AD
:102A4000000CCEF1004E38BFAEF1010EA6FB0C58C3
:102A50004FF00007E6FB0E87A1FB08C6A0FB07CEE0
:102A600016EB0E064FF0000545F10005E1FB07658A
:102A700015F1E04E7EBFA4F580345FEA46066D4155
:102A800016F1800745F100054FEA172747EA056769
:102A90004FEA15254FEA0666A6F1DE46B6F1805FDD
:102AA00020D9384605EBC47124F0010C01EB0C1160
:102AB000BCF1FE6F02D8F0BCBDE8008124425CBFCF
:102AC00001F5801E9EEAC47F02D4F0BCBDE80081FF
:102AD000244200F13980A1F1C041F0BCBDE80041C1
:102AE00000F01BB94FEAD02040EA41504FEAD12113
:102AF0004FEAD22242EA43524FEAD323A7FB02868F
:102B000007FB036605FB02661EEA0E0F58BFA6EB25
:102B10000056B6EB00564FEA520E4EEAC37E18EB53
:102B20000E0E56EB530EBCD518EB02085E417F1C0F
:102B300055F10005B5E74FF480154FF000074FF051
:102B400000064FF00008ACE701F1C04101F0004180
:102B50004FF00000F0BCBDE800810CEA131511EA4B
:102B60000C1F00D00CE013EA0C1F00F026804FF081
:102B7000000081EA030101F00041F0BCBDE80081E2
:102B8000F0BCBDE8004181EA030100F0C6B8F0BC2A
:102B9000BDE8004170B500F072F800BF097EFC3E50
:102BA00000F007B84FF0000081EA030101F0004196
:102BB000704781EA030100F0B0B8F0BCBDE8004105
:102BC00022494FF000007047FFFDFBF9F7F5F4F2E2
:102BD000F0EEEDEBE9E8E6E4E3E1E0DEDDDBDAD8B8
:102BE000D7D5D4D3D1D0CFCDCCCBCAC8C7C6C5C416
:102BF000C2C1C0BFBEBDBCBBBAB9B8B7B6B5B4B32D
:102C0000B2B1B0AFAEADACABAAA9A8A8A7A6A5A417
:102C1000A3A3A2A1A09F9F9E9D9C9C9B9A999998DB
:102C20009797969595949393929191908F8F8E8E7E
:102C30008D8C8C8B8B8A898988888787868585840B
:102C400084838382828181800000FF070000F87FF7
:102C500010F0004248BF4042B0FA80F310FA03F18E
:102C60000AD0C3F11D0303F5806302EB03524FEA60
:102C7000415002EBD12170474FF0000070470EF138
:102C8000020E2EF0030E5EF8046B364205D4012AC4
:102C900043EB030515F5001F12D8012841EB010C89
:102CA0001CF5001F0CD80ED14FEAD17C0CEB4C0C5C
:102CB0000CF1020C15F5001F08BF4CEBD37C04E0AF
:102CC0004FF0080C01E04FEAD37C0CEB4C0526FAE0
:102CD00005F606F00706B6F1040C06D20EEB860CDC
:102CE000BDE870404CF0010C6047DFE80CF0090BC8
:102CF00002024FF00041A1F500214FF0000070BD2D
:102D000019461046012851EB010418BFD4F50014F0
:102D100084BF002001F0004170BD0808A0F500113B
:102D20004FEA31017047000010B591EA030F48BF28
:102D300083F000433FF592AD841A71EB030C07D288
:102D40008CF0004C121943EB0C03001B61EB0C01DF
:102D50004FEA1154A4EB135CDFF8A4E11EEA430F21
:102D600018BF9EEA445F00F0B48021EA045123EAD0
:102D70006E035242C3EB6E0338BF5B1EDCF1200EC4
:102D800025D322FA0CFE10EB0E0043FA0CFE41EBA9
:102D90000E01CCF1200E03FA0EFE10EB0E00CCF16A
:102DA000200E51F1000129D401EB045112FA0EF268
:102DB000BDE8104058BF7047401C1CBFB2F1004F27
:102DC000704700280CBF491C20F00100704712EB2F
:102DD000020E43EB030218BF4FF0010E4EEA42020F
:102DE000ACF1200CDCF11E0E56D943FA0CFE10EBB0
:102DF0000E00CCF11E0E51F1FF31D5D50EF1010EB2
:102E000012FA0EFE404141EB010101EB445C5FEA26
:102E10005C5C10D901EB045110EBDE7038BFBEF1E1
:102E2000004FBDE8104018BF704700280CBF491C78
:102E300020F00100704734D24FEAD42C24F400640F
:102E400011F500111BD0B1FA81F20B3AA41AA41E9D
:102E5000D2F12003914030FA03F31943904001EB83
:102E6000CC7101EB0451002CBDE81040A8BF7047A5
:102E700001F1C04101F000414FF000007047B0FA8D
:102E800080F310FA03F102D1BDE810407047E41A54
:102E9000173C4805C90AE2E701EB0451BDE81040C0
:102EA000704749104FEA300001EB0451BDE8104073
:102EB00002E04FF0000170474A0008BF0042F8D01E
:102EC000B2F5001F28BF704701F000414FF000002D
:102ED00070479EEA445F07D011EA5E0FBDE81040DC
:102EE00004BF002100207047BDE8104070B5FFF717
:102EF000C6FE00BF40DFF63E104683F0004170473B
:102F00000000E0FFF1EE100A4FF6FF71C0F2C03191
:102F100020EA010040F04070E1EE100A7047FF2106
:102F200041EAD050C00570470000000000000000DA
:102F3000010203040607080902030405060708093D
:102F40000A0B0C0D0E0F10100102030405060708F2
:102F5000090A0B0C0D0E0F10782F0008000000203E
:102F600010000000C4010008882F00081000002095
:102F700058240000E00100080100000010000000DB
:082F800000127A0000000000BD
:040000050800018965
:00000001FF
